S01E0000323031392D30312D31345F5A6569746D657373756E672E737265631D
S11300000C944D000C9472010C948A010C946A00B7
S11300100C946A000C946A000C946A000C946A00B4
S11300200C946A000C946A000C946A000C946A00A4
S11300300C946A000C946A000C94E3000C946A001B
S11300400C946A000C946A000C946A000C946A0084
S11300500C946A000C946A000C946A000C946A0074
S11300600C946A000C946A002B023C024D025E025E
S11300706F0280029102B302A202B503CF03D80338
S1130080E0030D045B043A0450046F0482049F04EB
S1130090C304D104E8044105A50511241FBECFEF14
S11300A0D8E0DEBFCDBF11E0A0E0B1E0EAE8F3E1C3
S11300B002C005900D92AA3CB107D9F722E0AAEC40
S11300C0B1E001C01D92A530B207E1F70E9486039A
S11300D00C94C3090C940000CF93DF93CDB7DEB723
S11300E084E490E024E430E0F90120812E7FFC01D7
S11300F0208384E490E024E430E0F901208122604C
S1130100FC01208385E490E025E430E0F9012081BE
S1130110277FFC01208385E490E025E430E0F901A9
S113012020812B7FFC01208385E490E025E430E0EE
S1130130F90120812360FC01208387E490E029EF0A
S1130140FC0120838EE690E02EE630E0F901208168
S11301502260FC0120830000DF91CF910895CF93AA
S1130160DF93CDB7DEB78AE290E02AE230E0F9010E
S113017020812B7FFC01208389E690E029E630E092
S1130180F90120812360FC0120830000DF91CF91DD
S11301900895CF93DF93CDB7DEB78AE290E02AE2E9
S11301A030E0F9012081277FFC01208389E690E07B
S11301B029E630E0F90120812C60FC012083000055
S11301C0DF91CF9108951F920F9200905F000F92DC
S11301D011242F938F939F93EF93FF93CF93DF93E8
S11301E0CDB7DEB78091CA019091CB01019690936F
S11301F0CB018093CA018091CA019091CB01883EC2
S11302009340E4F18091CC019091CD0101969093BB
S1130210CD018093CC011092CB011092CA0189E2E6
S113022090E0FC018081882F90E080719927892BD0
S113023051F08091D2019091D30101969093D30112
S11302408093D2010EC089E290E0FC018081882F66
S113025090E080719927892B21F41092D301109298
S1130260D2018091D2019091D30103973CF081E0B7
S11302708093F3011092D3011092D2018091CC01AA
S11302809091CD01CC976CF08091CE019091CF01EB
S113029001969093CF018093CE011092CD011092DC
S11302A0CC018091CE019091CF01CC976CF08091DC
S11302B0D0019091D10101969093D1018093D00106
S11302C01092CF011092CE010000DF91CF91FF91E7
S11302D0EF919F918F912F910F9000925F000F905B
S11302E01F9018951F920F9200905F000F92112497
S11302F08F93CF93DF93CDB7DEB781E08093F40182
S11303000000DF91CF918F910F9000925F000F90CA
S11303101F9018951F920F9200905F000F92112466
S11303208F93CF93DF93CDB7DEB781E08093E20163
S11303300000DF91CF918F910F9000925F000F909A
S11303401F901895CF93DF93CDB7DEB71092CB01F2
S11303501092CA011092CD011092CC011092CF01DB
S11303601092CE011092D1011092D00186E490E057
S1130370FC0110820000DF91CF910895CF93DF93A9
S113038000D01F92CDB7DEB79A8389836B838981AE
S11303909A810197B9F48B81882351F08DE390E021
S11303A02DE330E0F90120812160FC01208324C089
S11303B08DE390E02DE330E0F90120812E7FFC01F4
S11303C020831AC089819A810297B1F48B81882392
S11303D051F08DE390E02DE330E0F90120812260BB
S11303E0FC01208309C08DE390E02DE330E0F901A6
S11303F020812D7FFC01208300000F900F900F902F
S1130400DF91CF910895CF93DF9300D0CDB7DEB7BE
S11304109A8389838091D4019091D50129813A816D
S11304202817390709F49FC00E94D30289819A8151
S1130430092E000CAA0BBB0B41E050E028E030E091
S1130440841B950B2817390708F48DC08C5C9F4FCB
S1130450FC010C94B00660E080E00E94DD0280E0C4
S113046091E00E94EE0260E081E00E94DD028BE0F8
S113047091E00E94EE0277C060E080E00E94DD021D
S113048086E191E00E94EE0260E081E00E94DD02DC
S113049085E291E00E94EE0266C060E080E00E9486
S11304A0DD0286E191E00E94EE0260E081E00E94BC
S11304B0DD028EE291E00E94EE0255C060E080E031
S11304C00E94DD0287E391E00E94EE0260E081E099
S11304D00E94DD0283E491E00E94EE0244C060E0E9
S11304E080E00E94DD0285E591E00E94EE0260E07A
S11304F081E00E94DD0282E691E00E94EE0233C0B8
S113050060E080E00E94DD028BE691E00E94EE0252
S113051060E081E00E94DD0285E791E00E94EE0246
S113052022C060E080E00E94DD0282E891E00E9447
S1130530EE0260E081E00E94DD028EE891E00E941C
S1130540EE0211C060E080E00E94DD0287E991E0E4
S11305500E94EE0260E081E00E94DD0283EE91E001
S11305600E94EE02000089819A81089781F460E07C
S113057080E00E94DD0287EA91E00E94EE0260E0E2
S113058081E00E94DD0283EE91E00E94EE02898107
S11305909A819093D5018093D40100000F900F901D
S11305A0DF91CF910895CF93DF93CDB7DEB70E944B
S11305B092060000DF91CF910895CF93DF9300D08E
S11305C0CDB7DEB789836A8369818A810E9449062F
S11305D000000F900F90DF91CF910895CF93DF9398
S11305E000D0CDB7DEB79A83898389819A810E942E
S11305F0650600000F900F90DF91CF910895CF937F
S1130600DF93CDB7DEB78091CA019091CB01DF9122
S1130610CF910895CF93DF93CDB7DEB78091CC010E
S11306209091CD01DF91CF910895CF93DF93CDB712
S1130630DEB78091CE019091CF01DF91CF910895E3
S1130640CF93DF93CDB7DEB78091D0019091D101E4
S1130650DF91CF910895CF93DF93CDB7DEB780912B
S1130660F401DF91CF910895CF93DF93CDB7DEB737
S11306708091E201DF91CF910895CF93DF931F9290
S1130680CDB7DEB7898389818093F40100000F9090
S1130690DF91CF910895CF93DF931F92CDB7DEB74B
S11306A0898389818093E20100000F90DF91CF91CB
S11306B00895CF93DF9300D0CDB7DEB79A838983B3
S11306C089819A8140E150E0BC0183EE91E00E946F
S11306D0CA0600000F900F90DF91CF910895CF9339
S11306E0DF93CDB7DEB78091F301DF91CF91089509
S11306F0CF93DF931F92CDB7DEB78983898180932F
S1130700F30100000F90DF91CF910895CF92DF9213
S1130710EF92FF920F931F93CF93DF93CDB7DEB782
S11307201092D7011092D6010E946F03882339F0EA
S11307301092D7011092D60180E00E947803809134
S1130740D6019091D701092E000CAA0BBB0B40E0F7
S113075050E02FE030E0841B950B2817390720F375
S1130760835C9F4FFC010C94B0060E9474060E94A7
S1130770AF000E94C90081E090E00E94030285E27C
S113078090E025E230E0F90120812F7DFC012083F7
S113079081E090E09093D7018093D601EEC10E944E
S11307A06C0082E090E09093D7018093D601E5C17C
S11307B0789483E090E09093D7018093D601DDC1D3
S11307C082E090E00E94030261E081E090E00E94F8
S11307D0BE010E94A20186E090E09093D70180932D
S11307E0D60180E00E943D030EC00E942B038823A3
S11307F051F084E090E09093D7018093D60180E09B
S11308000E943D0304C00E940A030B9774F360E046
S113081081E090E00E94BE01B0C183E090E00E94BC
S1130820030261E082E090E00E94BE010E94A20106
S113083086E090E09093D7018093D60180E00E94F7
S11308404B030EC00E943403882351F087E090E0EC
S11308509093D7018093D60180E00E944B0304C09B
S11308600E940A030B9774F360E082E090E00E9418
S1130870BE0183C184E090E00E94030289E290E01B
S1130880FC018081882F90E080719927892B09F4DD
S11308906DC183E090E09093D7018093D60166C147
S11308A085E090E00E94030285E090E09093D701F8
S11308B08093D60162C161E081E090E00E94BE01B4
S11308C060E082E090E00E94BE0180E00E943D036F
S11308D088E090E09093D7018093D6014EC186E0E2
S11308E090E00E9403020E942B03882309F440C174
S11308F089E090E09093D7018093D60180E00E9434
S11309003D0336C187E090E00E9403020E94A201E9
S113091085E290E025E230E0F90120812062FC01CB
S113092020830E940A0302969093E1018093E001E0
S11309308AE090E09093D7018093D6011EC18CE0A9
S113094090E09093D7018093D60112C00E942B03AC
S1130950882371F08BE090E09093D7018093D601C7
S113096080E00E943D0380E00E944B03000005C12B
S11309700E940A039C018091E0019091E101821799
S1130980930724F7FAC00E940A0302969093E101A8
S11309908093E0018AE090E09093D7018093D601A0
S11309A0ECC060E081E090E00E94BE0161E082E082
S11309B090E00E94BE0180E00E943D0380E00E941E
S11309C04B038DE090E09093D7018093D601D5C07E
S11309D00E943403882331F08EE090E09093D70195
S11309E08093D6010E94FF022BE030E0B9010E94FF
S11309F09C060A9709F0BEC00E94FF026C010E9487
S1130A000A037C010E9415038C010E9420032D2DF2
S1130A102F932C2D2F932F2D2F932E2D2F93212F6A
S1130A202F93202F2F93292F2F938F9385EB91E0D2
S1130A30892F8F9385EB91E08F9385EF91E0892F38
S1130A408F9385EF91E08F930E94D9068DB79EB75F
S1130A500C960FB6F894DEBF0FBECDBF85EF91E0C4
S1130A600E94590388E090E00E94030285E290E02E
S1130A7025E230E0F901308120E22327FC012083C4
S1130A8079C00E94FF029093D9018093D8010E94FB
S1130A900A039093DB018093DA010E94150390937B
S1130AA0DD018093DC010E9420039093DF01809399
S1130AB0DE0185E290E025E230E0F90120812F7D1E
S1130AC0FC0120836091D8017091D9014091DA0131
S1130AD05091DB012091DC013091DD018091DE0138
S1130AE09091DF01E72FEF936F93652F6F934F93EF
S1130AF0432F4F932F93292F2F938F9385EB91E0BF
S1130B00892F8F9385EB91E08F9385EF91E0892F67
S1130B108F9385EF91E08F930E94D9068DB79EB78E
S1130B200C960FB6F894DEBF0FBECDBF85EF91E0F3
S1130B300E94590389E090E00E9403028FE090E054
S1130B409093D7018093D60118C089E290E0FC010C
S1130B508081882F90E080719927892B69F085E046
S1130B6090E09093D7018093D60107C00000DCCDBC
S1130B700000DACD0000D8CD0000D6CD3A9A399ADB
S1130B80389A2FEF89EF90E0215080409040E1F7B0
S1130B9000C00000089555985698579820982198B9
S1130BA02298239824980895559A569A579A209AE9
S1130BB0219A229A239A249A089589B199B199B1D4
S1130BC093B193B193B193B193B185FB882780F925
S1130BD0089580FF02C05D9A01C05D9881FF02C044
S1130BE05E9A01C05E9882FF02C05F9A01C05F985E
S1130BF083FF02C0289A01C0289884FF02C0299A62
S1130C0001C0299885FF02C02A9A01C02A9886FF4C
S1130C1002C02B9A01C02B98882314F42C9A0895AF
S1130C202C980895429A8FE39CE90197F1F700C04C
S1130C300000429808950E94CB05419A409802C052
S1130C400E9412060E94DD058823D4F30E94D40575
S1130C500895CF93C82F0E941B068C2F0E94E9058C
S1130C60419840980E94120680E00E94E905CF91C5
S1130C700895CF93C82F0E941B068C2F0E94E9056C
S1130C804198409A0E94120680E00E94E905CF91A3
S1130C900895CF93DF9300D000D0CDB7DEB719828B
S1130CA090E49A8394E19B8394E59C83FE01E60F90
S1130CB0F11D80589181890F0E9429060F900F9091
S1130CC00F900F90DF91CF910895CF93DF93EC01B4
S1130CD08881882331F021960E94390689918111F7
S1130CE0FBCFDF91CF9108950E94BE0581E00E9461
S1130CF029068FE19EE40197F1F700C0000088E324
S1130D000E9429068FE19EE40197F1F700C00000DC
S1130D108CE00E9429068FE19EE40197F1F700C060
S1130D200000089581E00E9429068FE19EE4019766
S1130D30F1F700C00000089597FB072E16F4009405
S1130D4007D077FD09D00E94B60607FC05D03EF413
S1130D50909581959F4F0895709561957F4F089563
S1130D60EE0FFF1F0590F491E02D0994AA1BBB1B05
S1130D7051E107C0AA1FBB1FA617B70710F0A61B97
S1130D80B70B881F991F5A95A9F780959095BC01B8
S1130D90CD010895FB01DC014150504048F0019021
S1130DA00D920020C9F701C01D9241505040E0F758
S1130DB00895AEE0B0E0EFEDF6E00C949A090D89E9
S1130DC01E8986E08C831A8309838FEF9FE79E83B5
S1130DD08D83AE01475E5F4F6F89788DCE0101969A
S1130DE00E94FB06EF81F885E00FF11F10822E961A
S1130DF0E4E00C94B609ABE0B0E0E1E0F7E00C9479
S1130E008C096C017B018A01FC01178216828381A3
S1130E1081FFCCC1CE0101963C01F6019381F7011B
S1130E2093FD859193FF81917F01882309F4BAC1D1
S1130E30853239F493FD859193FF81917F01853249
S1130E4029F4B60190E00E94F208E7CF912C212CFE
S1130E50312CFFE1F315D8F08B3279F038F480327D
S1130E6079F08332A1F4232D20611DC08D3261F00D
S1130E70803369F4232D216016C0832D8260382EBF
S1130E80E32DE4603E2E2AC0F32DF8601DC037FC2C
S1130E902DC020ED280F2A3040F08E32B9F436FCF4
S1130EA081C1232D2064322E19C036FE06C08AE08B
S1130EB0989E200D1124922E11C0EAE02E9E200D42
S1130EC01124222EF32DF0623F2E08C08C3621F41B
S1130ED0832D8068382E02C0883641F4F70193FDD3
S1130EE0859193FF81917F018111B3CF982F9F7DCD
S1130EF09554933028F40C5F1F4F9FE399830DC0E2
S1130F00833631F0833771F0833509F059C021C03D
S1130F10F801808189830E5F1F4F88248394912C6C
S1130F20530113C02801F2E04F0E511CF801A080B8
S1130F30B18036FE03C0692D70E002C06FEF7FEF11
S1130F40C5010E94E7084C018201F32DFF773F2E73
S1130F5016C0280122E0420E511CF801A080B18085
S1130F6036FE03C0692D70E002C06FEF7FEFC5014C
S1130F700E94DC084C01F32DF0683F2E820133FC03
S1130F801BC0822D90E088169906B0F4B60180E269
S1130F9090E00E94F2082A94F4CFF50137FC859181
S1130FA037FE81915F01B60190E00E94F2082110A2
S1130FB02A9421E0821A91088114910471F7E8C0FF
S1130FC0843611F0893641F5F80137FE07C0608197
S1130FD07181828193810C5F1F4F08C06081718190
S1130FE0072E000C880B990B0E5F1F4FF32DFF7615
S1130FF03F2E97FF09C090958095709561957F4F1E
S11310008F4F9F4FF0683F2E2AE030E0A3010E94EB
S11310102E09882E861845C0853731F4232D2F7E5E
S1131020B22E2AE030E025C0932D997FB92E8F3659
S1131030C1F018F4883579F0B5C0803719F08837D5
S113104021F0B0C0E92FE061BE2EB4FE0DC0FB2D2F
S1131050F460BF2E09C034FE0AC0292F2660B22EC8
S113106006C028E030E005C020E130E002C020E105
S113107032E0F801B7FE07C06081718182819381FB
S11310800C5F1F4F06C06081718180E090E00E5FAD
S11310901F4FA3010E942E09882E8618FB2DFF776F
S11310A03F2E36FE0DC0232D2E7FA22E891458F418
S11310B034FE0BC032FC09C0832D8E7EA82E05C0E1
S11310C0B82CA32C03C0B82C01C0B92CA4FE0FC0AB
S11310D0FE01E80DF11D8081803321F49A2D997E63
S11310E0A92E09C0A2FE06C0B394B39404C08A2DED
S11310F0867809F0B394A3FC11C0A0FE06C0B21414
S113110088F4280C922C9B180EC0B21460F4B6011B
S113111080E290E00E94F208B394F7CFB21418F47E
S11311202B1802C0982C212CA4FE10C0B60180E319
S113113090E00E94F208A2FE17C0A1FC03C088E759
S113114090E002C088E590E0B6010CC08A2D867854
S113115059F0A1FE02C08BE201C080E2A7FC8DE23F
S1131160B60190E00E94F208891438F4B60180E3D5
S113117090E00E94F2089A94F7CF8A94F301E80D64
S1131180F11D8081B60190E00E94F2088110F5CF34
S1131190222009F442CEB60180E290E00E94F208D7
S11311A02A94F6CFF6018681978102C08FEF9FEFD4
S11311B02B96E2E10C94A809FC0105906150704063
S11311C00110D8F7809590958E0F9F1F0895FC010C
S11311D06150704001900110D8F7809590958E0F62
S11311E09F1F08950F931F93CF93DF93FB012381D8
S11311F021FD03C08FEF9FEF2CC022FF16C0468154
S11312005781248135814217530744F4A081B18169
S11312109D012F5F3F4F318320838C93268137813B
S11312202F5F3F4F3783268314C08B01EC01FB01F2
S11312300084F185E02D0995892BE1F6D8011696F5
S11312408D919C911797019617969C938E93169760
S1131250CE01DF91CF911F910F910895FA01AA2732
S1131260283051F1203181F1E8946F936E7F6E5FE5
S11312707F4F8F4F9F4FAF4FB1E03ED0B4E03CD093
S1131280670F781F891F9A1FA11D680F791F8A1F76
S1131290911DA11D6A0F711D811D911DA11D20D0DD
S11312A009F468943F912AE0269F11243019305D97
S11312B03193DEF6CF010895462F4770405D419388
S11312C0B3E00FD0C9F7F6CF462F4F70405D4A33D5
S11312D018F0495D31FD4052419302D0A9F7EACF9D
S11312E0B4E0A6959795879577956795BA95C9F7CC
S11312F000976105710508959B01AC010A2E0694BF
S11313005795479537952795BA95C9F7620F731F77
S1131310841F951FA01D08952F923F924F925F92B4
S11313206F927F928F929F92AF92BF92CF92DF92F1
S1131330EF92FF920F931F93CF93DF93CDB7DEB756
S1131340CA1BDB0B0FB6F894DEBF0FBECDBF0994EA
S11313502A88398848885F846E847D848C849B8441
S1131360AA84B984C884DF80EE80FD800C811B814F
S1131370AA81B981CE0FD11D0FB6F894DEBF0FBE7E
S10D1380CDBFED010895F894FFCFEE
S113138A696E697469616C697A65007379737465E5
S113139A6D202E2E2E00506C65617365207472695F
S11313AA676765720053656E736F72203100536507
S11313BA6E736F722032004572726F722077686999
S11313CA6C6500636865636B696E672073656E7329
S11313DA6F72732E005375636365737366756C6CF1
S11313EA7900636865636B65642E0052656164798C
S11313FA20666F72006D6561737572656D656E74D2
S113140A2E004D6561737572656D656E7400737433
S113141A61727465642E004D65617375726520731B
S113142A746F707065640043757272656E742074AB
S113143A696D653A00253032693A253032693A25B0
S10D144A3032693A2530336900009E
S9030000FC
